:100000000C942D000C9412040C943B040C94640486
:100010000C9431050C9408050C94D9050C94B60485
:100020000C94DF040C948D040C94BC030C948F038B
:100030000C94D9050C94D9050C94D9050C94D905C8
:100040000C94D9050C94D9050C94D9050C94D905B8
:100050000C94D90500600074800011241FBECFE508
:10006000D8E0DEBFCDBFE4E5F0E040E017C0B591D9
:10007000A59135912591059107FD0CC0959185912C
:10008000EF01F92FE82F05900D92A217B307D9F7CA
:10009000FE0104C01D92A217B307E1F7E935F4078A
:0E00A00031F70E94E9030C94BE05F894FFCFDF
:1000AE00010000000000000100000200000001003D
:1000BE00000000000000000001000202000001002C
:1000CE00CF92DF92EF9280E031C1982F9695969560
:1000DE009695282F2770913009F450C038F0923041
:1000EE0009F494C0933009F4D9C025C1C82ED12C7F
:1000FE00E12C6E2DA60142555F4F6F4F6A01E62E21
:10010E00FA019491E7FC9081913089F49BB341E020
:10011E0050E0BA0102C0660F771F2A95E2F79B01E5
:10012E00209592239BBB9AB329232ABBFEC0923003
:10013E0089F49BB341E050E0BA0102C0660F771F0D
:10014E002A95E2F79B01962B9BBB9AB32095292308
:10015E002ABBEBC09111F1C09BB341E050E0BA0154
:10016E0002C0660F771F2A95E2F79B01362F309556
:10017E0093239BBB9AB3292B2ABBD7C0C82ED12C55
:10018E00E12C6E2DA60142555F4F6F4F6A01E62E90
:10019E00FA019491E7FC9081913089F498B341E093
:1001AE0050E0BA0102C0660F771F2A95E2F79B0155
:1001BE002095922398BB97B3292327BBB6C09230C4
:1001CE0089F498B341E050E0BA0102C0660F771F80
:1001DE002A95E2F79B01962B98BB97B3209529237E
:1001EE0027BBA3C09111ABC098B341E050E0BA0158
:1001FE0002C0660F771F2A95E2F79B01362F3095C6
:10020E00932398BB97B3292B27BB8FC0C82ED12C15
:10021E00E12C6E2DA60142555F4F6F4F6A01E62EFF
:10022E00FA019491E7FC9081913089F495B341E005
:10023E0050E0BA0102C0660F771F2A95E2F79B01C4
:10024E002095922395BB94B3292324BB6EC0923084
:10025E0089F495B341E050E0BA0102C0660F771FF2
:10026E002A95E2F79B01962B95BB94B320952923F3
:10027E0024BB5BC0911165C095B341E050E0BA015B
:10028E0002C0660F771F2A95E2F79B01362F309535
:10029E00932395BB94B3292B24BB47C0C82ED12CD6
:1002AE00E12C6E2DA60142555F4F6F4F6A01E62E6F
:1002BE00FA019491E7FC9081913089F492B341E078
:1002CE0050E0BA0102C0660F771F2A95E2F79B0134
:1002DE002095922392BB91B3292321BB26C0923045
:1002EE0089F492B341E050E0BA0102C0660F771F65
:1002FE002A95E2F79B01962B92BB91B32095292369
:10030E0021BB13C091111FC092B341E050E0BA015E
:10031E0002C0660F771F2A95E2F79B01362F3095A4
:10032E00932392BB91B3292B21BB8F5F803208F4AC
:10033E00CCCE80E009C082E007C082E005C082E03A
:10034E0003C082E001C082E0EF90DF90CF9008956D
:10035E00803208F091C0623008F090C0982F9695C8
:10036E00969596958770613009F040C09130A1F056
:10037E0028F09230F9F0933059F182C04BB321E05E
:10038E0030E0B90102C0660F771F8A95E2F7CB0104
:10039E00842B8BBB80E0089548B321E030E0B90197
:1003AE0002C0660F771F8A95E2F7CB01842B88BBBC
:1003BE0080E0089545B321E030E0B90102C0660F38
:1003CE00771F8A95E2F7CB01842B85BB80E00895D9
:1003DE0042B321E030E0B90102C0660F771F8A9563
:1003EE00E2F7CB01842B82BB80E0089561114AC0F5
:1003FE009130A9F028F0923009F1933071F144C098
:10040E004BB321E030E0B90102C0660F771F8A9529
:10041E00E2F7CB01809584238BBB80E0089548B32F
:10042E0021E030E0B90102C0660F771F8A95E2F72E
:10043E00CB018095842388BB80E0089545B321E0ED
:10044E0030E0B90102C0660F771F8A95E2F7CB0143
:10045E008095842385BB80E0089542B321E030E08F
:10046E00B90102C0660F771F8A95E2F7CB0180951E
:10047E00842382BB80E0089582E0089582E008958F
:0C048E0081E0089580E0089581E0089569
:10049A00DF92EF92FF920F931F93CF93DF93C82FB0
:1004AA00D62F142FD22E823008F061C0653008F0A2
:1004BA0060C0443008F05FC031E0321708F45DC014
:1004CA00023008F05CC0E114F10409F45AC0970143
:1004DA0040E050E060E271EA87E090E00E949B050C
:1004EA002150310930BD29B98BB18D7F8BB9C1300B
:1004FA0021F480B5806480BD03C080B58F7B80BD48
:10050A00D43021F48AB184608AB903C08AB18B7F5E
:10051A008AB920B58D2F837090E0880F991F922F8A
:10052A00997F892B80BD20B530E1139FC00111242A
:10053A00922F9F7C892B80BD81E0D81204C080B5A0
:10054A00886080BD03C080B5877F80BD013021F4FB
:10055A0080B5816080BD03C080B58E7F80BD8AB1C1
:10056A0080618AB98AB188608AB980E00BC082E06A
:10057A0009C082E007C082E005C082E003C082E0D1
:10058A0001C082E0DF91CF911F910F91FF90EF9010
:04059A00DF90089551
:10059E00CF93C82F60E081E00E94AF016C2F661FE1
:1005AE006627661F86E00E94AF01C6FB662760F9CC
:1005BE0085E00E94AF01C5FB662760F984E00E94CA
:1005CE00AF01C4FB662760F983E00E94AF0161E0D2
:1005DE0082E00E94AF018FEC97E00197F1F700C027
:1005EE00000060E082E00E94AF018FEC97E001977F
:1005FE00F1F700C00000C3FB662760F986E00E9499
:10060E00AF01C2FB662760F985E00E94AF01C1FB16
:10061E00662760F984E00E94AF016C2F617083E061
:10062E000E94AF0161E082E00E94AF018FEC97E083
:10063E000197F1F700C0000060E082E00E94AF0178
:10064E008FEC97E00197F1F700C00000CF9108956D
:10065E00CF93C82F61E081E00E94AF016C2F661F1F
:10066E006627661F86E00E94AF01C6FB662760F90B
:10067E0085E00E94AF01C5FB662760F984E00E9409
:10068E00AF01C4FB662760F983E00E94AF0161E011
:10069E0082E00E94AF018FEC97E00197F1F700C066
:1006AE00000060E082E00E94AF018FEC97E00197BE
:1006BE00F1F700C00000C3FB662760F986E00E94D8
:1006CE00AF01C2FB662760F985E00E94AF01C1FB56
:1006DE00662760F984E00E94AF016C2F617083E0A1
:1006EE000E94AF0161E082E00E94AF018FEC97E0C3
:1006FE000197F1F700C0000060E082E00E94AF01B8
:10070E008FEC97E00197F1F700C00000CF910895AC
:10071E001F920F920FB60F9211242F933F934F9368
:10072E005F936F937F938F939F93AF93BF93EF934B
:10073E00FF93E0917200F0917300309709F00995E4
:10074E0061E081E10E94AF01FF91EF91BF91AF9106
:10075E009F918F917F916F915F914F913F912F91CB
:0A076E000F900FBE0F901F9018951A
:100778001F920F920FB60F9211242F933F934F930E
:100788005F936F937F938F939F93AF93BF93EF93F1
:10079800FF93E0917000F0917100309709F009958E
:1007A80061E081E10E94AF01FF91EF91BF91AF91AC
:1007B8009F918F917F916F915F914F913F912F9171
:0A07C8000F900FBE0F901F901895C0
:1007D200CF93DF930F92CDB7DEB70E9467000E94DE
:1007E2007C050F2EF0E8EF2EF5E2FF2EF02D00E053
:1007F20020E040E064E080E00E944D0281E60E9439
:10080200D10561E080E10E94AF01CE0101960E9414
:10081200B20589810E94D60561E082E10E94AF01A2
:02082200EDCF18
:100824001F920F920FB60F9211242F933F934F9361
:100834005F936F937F938F939F93AF93BF93EF9344
:10084400FF93E0916400F0916500309709F00995F9
:10085400FF91EF91BF91AF919F918F917F916F9194
:100864005F914F913F912F910F900FBE0F901F906A
:020874001895D5
:100876001F920F920FB60F9211242F933F934F930F
:100886005F936F937F938F939F93AF93BF93EF93F2
:10089600FF93E0916200F0916300309709F00995AB
:1008A600FF91EF91BF91AF919F918F917F916F9142
:1008B6005F914F913F912F910F900FBE0F901F9018
:0208C600189583
:1008C8001F920F920FB60F9211242F933F934F93BD
:1008D8005F936F937F938F939F93AF93BF93EF93A0
:1008E800FF93E0916000F0916100309709F009955D
:1008F800FF91EF91BF91AF919F918F917F916F91F0
:100908005F914F913F912F910F900FBE0F901F90C5
:02091800189530
:10091A001F920F920FB60F9211242F933F934F936A
:10092A005F936F937F938F939F93AF93BF93EF934D
:10093A00FF93E0916E00F0916F00309709F00995EE
:10094A00FF91EF91BF91AF919F918F917F916F919D
:10095A005F914F913F912F910F900FBE0F901F9073
:02096A001895DE
:10096C001F920F920FB60F9211242F933F934F9318
:10097C005F936F937F938F939F93AF93BF93EF93FB
:10098C00FF93E0916C00F0916D00309709F00995A0
:10099C00FF91EF91BF91AF919F918F917F916F914B
:1009AC005F914F913F912F910F900FBE0F901F9021
:0209BC0018958C
:1009BE001F920F920FB60F9211242F933F934F93C6
:1009CE005F936F937F938F939F93AF93BF93EF93A9
:1009DE00FF93E0916A00F0916B00309709F0099552
:1009EE00FF91EF91BF91AF919F918F917F916F91F9
:1009FE005F914F913F912F910F900FBE0F901F90CF
:020A0E00189539
:100A10001F920F920FB60F9211242F933F934F9373
:100A20005F936F937F938F939F93AF93BF93EF9356
:100A3000FF93E0916800F0916900309709F0099503
:100A4000FF91EF91BF91AF919F918F917F916F91A6
:100A50005F914F913F912F910F900FBE0F901F907C
:020A60001895E7
:100A62001F920F920FB60F9211242F933F934F9321
:100A72005F936F937F938F939F93AF93BF93EF9304
:100A8200FF93E0916600F0916700309709F00995B5
:100A9200FF91EF91BF91AF919F918F917F916F9154
:100AA2005F914F913F912F910F900FBE0F901F902A
:020AB200189595
:100AB400A1E21A2EAA1BBB1BFD010DC0AA1FBB1F5E
:100AC400EE1FFF1FA217B307E407F50720F0A21BD0
:100AD400B30BE40BF50B661F771F881F991F1A943D
:100AE40069F760957095809590959B01AC01BD0167
:040AF400CF01089591
:100AF8002FE788E391E0215080409040E1F700C063
:100B0800000082E00E94CF0288E20E94CF028CE0BF
:100B18000E94CF0281E00E94CF028FEC97E00197FC
:0E0B2800F1F700C0000086E00E94CF020895A1
:100B3600052E97FB1EF400940E94C90557FD07D0A9
:100B46000E945A0507FC03D04EF40C94C905509533
:0E0B56004095309521953F4F4F4F5F4F0895CA
:100B6400FC019BB19C7131F45F9BFECF8CB18083FF
:080B740080E0089581E008957E
:100B7C00EC010E94DE050E94DD05CE010E94DF051E
:060B8C00CE010E94DB0512
:100B920090958095709561957F4F8F4F9F4F0895E7
:0A0BA2005D9BFECF8CB980E0089542
:060BAC000E942F030895D2
:040BB2000C9400009F
:040BB6000E94550044
:020BBA0008959C
:020BBC0008959A
:020BBE00089598
:00000001FF
